{
  "_format": "hh-sol-artifact-1",
  "contractName": "SmartSukukToken",
  "sourceName": "contracts/SmartSukukToken.sol",
  "abi": [
    {
      "inputs": [],
      "stateMutability": "nonpayable",
      "type": "constructor"
    },
    {
      "inputs": [
        {
          "internalType": "address",
          "name": "owner",
          "type": "address"
        }
      ],
      "name": "OwnableInvalidOwner",
      "type": "error"
    },
    {
      "inputs": [
        {
          "internalType": "address",
          "name": "account",
          "type": "address"
        }
      ],
      "name": "OwnableUnauthorizedAccount",
      "type": "error"
    },
    {
      "anonymous": false,
      "inputs": [
        {
          "indexed": true,
          "internalType": "bytes32",
          "name": "partitionId",
          "type": "bytes32"
        },
        {
          "indexed": true,
          "internalType": "address",
          "name": "to",
          "type": "address"
        },
        {
          "indexed": false,
          "internalType": "uint256",
          "name": "amount",
          "type": "uint256"
        }
      ],
      "name": "Issued",
      "type": "event"
    },
    {
      "anonymous": false,
      "inputs": [
        {
          "indexed": true,
          "internalType": "address",
          "name": "previousOwner",
          "type": "address"
        },
        {
          "indexed": true,
          "internalType": "address",
          "name": "newOwner",
          "type": "address"
        }
      ],
      "name": "OwnershipTransferred",
      "type": "event"
    },
    {
      "anonymous": false,
      "inputs": [
        {
          "indexed": true,
          "internalType": "bytes32",
          "name": "partitionId",
          "type": "bytes32"
        },
        {
          "indexed": false,
          "internalType": "string",
          "name": "name",
          "type": "string"
        }
      ],
      "name": "PartitionCreated",
      "type": "event"
    },
    {
      "anonymous": false,
      "inputs": [
        {
          "indexed": true,
          "internalType": "bytes32",
          "name": "partitionId",
          "type": "bytes32"
        },
        {
          "indexed": false,
          "internalType": "address",
          "name": "from",
          "type": "address"
        },
        {
          "indexed": false,
          "internalType": "address",
          "name": "to",
          "type": "address"
        },
        {
          "indexed": false,
          "internalType": "uint256",
          "name": "amount",
          "type": "uint256"
        }
      ],
      "name": "TransferredByPartition",
      "type": "event"
    },
    {
      "inputs": [
        {
          "internalType": "address",
          "name": "investor",
          "type": "address"
        }
      ],
      "name": "addToWhitelist",
      "outputs": [],
      "stateMutability": "nonpayable",
      "type": "function"
    },
    {
      "inputs": [
        {
          "internalType": "bytes32",
          "name": "partitionId",
          "type": "bytes32"
        },
        {
          "internalType": "address",
          "name": "user",
          "type": "address"
        }
      ],
      "name": "balanceOfByPartition",
      "outputs": [
        {
          "internalType": "uint256",
          "name": "",
          "type": "uint256"
        }
      ],
      "stateMutability": "view",
      "type": "function"
    },
    {
      "inputs": [
        {
          "internalType": "string",
          "name": "partitionName",
          "type": "string"
        }
      ],
      "name": "createPartition",
      "outputs": [],
      "stateMutability": "nonpayable",
      "type": "function"
    },
    {
      "inputs": [],
      "name": "decimals",
      "outputs": [
        {
          "internalType": "uint8",
          "name": "",
          "type": "uint8"
        }
      ],
      "stateMutability": "view",
      "type": "function"
    },
    {
      "inputs": [
        {
          "internalType": "bytes32",
          "name": "",
          "type": "bytes32"
        }
      ],
      "name": "existingPartitions",
      "outputs": [
        {
          "internalType": "bool",
          "name": "",
          "type": "bool"
        }
      ],
      "stateMutability": "view",
      "type": "function"
    },
    {
      "inputs": [],
      "name": "getAllPartitions",
      "outputs": [
        {
          "internalType": "bytes32[]",
          "name": "",
          "type": "bytes32[]"
        }
      ],
      "stateMutability": "view",
      "type": "function"
    },
    {
      "inputs": [
        {
          "internalType": "bytes32",
          "name": "partitionId",
          "type": "bytes32"
        },
        {
          "internalType": "address",
          "name": "to",
          "type": "address"
        },
        {
          "internalType": "uint256",
          "name": "amount",
          "type": "uint256"
        }
      ],
      "name": "issueByPartition",
      "outputs": [],
      "stateMutability": "nonpayable",
      "type": "function"
    },
    {
      "inputs": [],
      "name": "name",
      "outputs": [
        {
          "internalType": "string",
          "name": "",
          "type": "string"
        }
      ],
      "stateMutability": "view",
      "type": "function"
    },
    {
      "inputs": [
        {
          "internalType": "bytes32",
          "name": "partitionId",
          "type": "bytes32"
        },
        {
          "internalType": "address",
          "name": "from",
          "type": "address"
        },
        {
          "internalType": "address",
          "name": "to",
          "type": "address"
        },
        {
          "internalType": "uint256",
          "name": "amount",
          "type": "uint256"
        }
      ],
      "name": "operatorTransferByPartition",
      "outputs": [],
      "stateMutability": "nonpayable",
      "type": "function"
    },
    {
      "inputs": [],
      "name": "owner",
      "outputs": [
        {
          "internalType": "address",
          "name": "",
          "type": "address"
        }
      ],
      "stateMutability": "view",
      "type": "function"
    },
    {
      "inputs": [
        {
          "internalType": "address",
          "name": "investor",
          "type": "address"
        }
      ],
      "name": "removeFromWhitelist",
      "outputs": [],
      "stateMutability": "nonpayable",
      "type": "function"
    },
    {
      "inputs": [],
      "name": "renounceOwnership",
      "outputs": [],
      "stateMutability": "nonpayable",
      "type": "function"
    },
    {
      "inputs": [],
      "name": "symbol",
      "outputs": [
        {
          "internalType": "string",
          "name": "",
          "type": "string"
        }
      ],
      "stateMutability": "view",
      "type": "function"
    },
    {
      "inputs": [
        {
          "internalType": "bytes32",
          "name": "partitionId",
          "type": "bytes32"
        }
      ],
      "name": "totalSupplyByPartition",
      "outputs": [
        {
          "internalType": "uint256",
          "name": "",
          "type": "uint256"
        }
      ],
      "stateMutability": "view",
      "type": "function"
    },
    {
      "inputs": [
        {
          "internalType": "bytes32",
          "name": "partitionId",
          "type": "bytes32"
        },
        {
          "internalType": "address",
          "name": "to",
          "type": "address"
        },
        {
          "internalType": "uint256",
          "name": "amount",
          "type": "uint256"
        }
      ],
      "name": "transferByPartition",
      "outputs": [],
      "stateMutability": "nonpayable",
      "type": "function"
    },
    {
      "inputs": [
        {
          "internalType": "address",
          "name": "newOwner",
          "type": "address"
        }
      ],
      "name": "transferOwnership",
      "outputs": [],
      "stateMutability": "nonpayable",
      "type": "function"
    },
    {
      "inputs": [
        {
          "internalType": "address",
          "name": "",
          "type": "address"
        }
      ],
      "name": "whitelistedInvestors",
      "outputs": [
        {
          "internalType": "bool",
          "name": "",
          "type": "bool"
        }
      ],
      "stateMutability": "view",
      "type": "function"
    }
  ],
  "bytecode": "0x60806040526040518060400160405280601181526020017f536d6172742053756b756b20546f6b656e000000000000000000000000000000815250600590816100489190610453565b506040518060400160405280600581526020017f53554b554b0000000000000000000000000000000000000000000000000000008152506006908161008d9190610453565b506012600760006101000a81548160ff021916908360ff1602179055503480156100b657600080fd5b5033600073ffffffffffffffffffffffffffffffffffffffff168173ffffffffffffffffffffffffffffffffffffffff160361012a5760006040517f1e4fbdf70000000000000000000000000000000000000000000000000000000081526004016101219190610566565b60405180910390fd5b6101398161013f60201b60201c565b50610581565b60008060009054906101000a900473ffffffffffffffffffffffffffffffffffffffff169050816000806101000a81548173ffffffffffffffffffffffffffffffffffffffff021916908373ffffffffffffffffffffffffffffffffffffffff1602179055508173ffffffffffffffffffffffffffffffffffffffff168173ffffffffffffffffffffffffffffffffffffffff167f8be0079c531659141344cd1fd0a4f28419497f9722a3daafe3b4186f6b6457e060405160405180910390a35050565b600081519050919050565b7f4e487b7100000000000000000000000000000000000000000000000000000000600052604160045260246000fd5b7f4e487b7100000000000000000000000000000000000000000000000000000000600052602260045260246000fd5b6000600282049050600182168061028457607f821691505b6020821081036102975761029661023d565b5b50919050565b60008190508160005260206000209050919050565b60006020601f8301049050919050565b600082821b905092915050565b6000600883026102ff7fffffffffffffffffffffffffffffffffffffffffffffffffffffffffffffffff826102c2565b61030986836102c2565b95508019841693508086168417925050509392505050565b6000819050919050565b6000819050919050565b600061035061034b61034684610321565b61032b565b610321565b9050919050565b6000819050919050565b61036a83610335565b61037e61037682610357565b8484546102cf565b825550505050565b600090565b610393610386565b61039e818484610361565b505050565b5b818110156103c2576103b760008261038b565b6001810190506103a4565b5050565b601f821115610407576103d88161029d565b6103e1846102b2565b810160208510156103f0578190505b6104046103fc856102b2565b8301826103a3565b50505b505050565b600082821c905092915050565b600061042a6000198460080261040c565b1980831691505092915050565b60006104438383610419565b9150826002028217905092915050565b61045c82610203565b67ffffffffffffffff8111156104755761047461020e565b5b61047f825461026c565b61048a8282856103c6565b600060209050601f8311600181146104bd57600084156104ab578287015190505b6104b58582610437565b86555061051d565b601f1984166104cb8661029d565b60005b828110156104f3578489015182556001820191506020850194506020810190506104ce565b86831015610510578489015161050c601f891682610419565b8355505b6001600288020188555050505b505050505050565b600073ffffffffffffffffffffffffffffffffffffffff82169050919050565b600061055082610525565b9050919050565b61056081610545565b82525050565b600060208201905061057b6000830184610557565b92915050565b611ddf806105906000396000f3fe608060405234801561001057600080fd5b506004361061010b5760003560e01c80638ab1d681116100a2578063e43252d711610071578063e43252d7146102a6578063f2fde38b146102c2578063fa4bb710146102de578063fd44c114146102fc578063fe3c70f4146103185761010b565b80638ab1d6811461021e5780638da5cb5b1461023a57806395d89b4114610258578063a26734dc146102765761010b565b806335d68018116100de57806335d68018146101985780637050f1de146101b4578063715018a6146101e457806386940fda146101ee5761010b565b806306fdde031461011057806330e828031461012e578063313ce5671461015e578063357144b41461017c575b600080fd5b610118610334565b60405161012591906111f7565b60405180910390f35b610148600480360381019061014391906112b7565b6103c2565b6040516101559190611310565b60405180910390f35b61016661044f565b6040516101739190611347565b60405180910390f35b6101966004803603810190610191919061138e565b610462565b005b6101b260048036038101906101ad919061138e565b610769565b005b6101ce60048036038101906101c991906113e1565b61093e565b6040516101db9190611429565b60405180910390f35b6101ec61095e565b005b61020860048036038101906102039190611444565b610972565b6040516102159190611429565b60405180910390f35b61023860048036038101906102339190611444565b610992565b005b6102426109f5565b60405161024f9190611480565b60405180910390f35b610260610a1e565b60405161026d91906111f7565b60405180910390f35b610290600480360381019061028b91906113e1565b610aac565b60405161029d9190611310565b60405180910390f35b6102c060048036038101906102bb9190611444565b610afb565b005b6102dc60048036038101906102d79190611444565b610b5e565b005b6102e6610be4565b6040516102f39190611559565b60405180910390f35b6103166004803603810190610311919061157b565b610c3c565b005b610332600480360381019061032d9190611647565b610ebe565b005b60058054610341906116c3565b80601f016020809104026020016040519081016040528092919081815260200182805461036d906116c3565b80156103ba5780601f1061038f576101008083540402835291602001916103ba565b820191906000526020600020905b81548152906001019060200180831161039d57829003601f168201915b505050505081565b60006002600084815260200190815260200160002060009054906101000a900460ff166103f25760009050610449565b6001600084815260200190815260200160002060020160008373ffffffffffffffffffffffffffffffffffffffff1673ffffffffffffffffffffffffffffffffffffffff1681526020019081526020016000205490505b92915050565b600760009054906101000a900460ff1681565b81600460008273ffffffffffffffffffffffffffffffffffffffff1673ffffffffffffffffffffffffffffffffffffffff16815260200190815260200160002060009054906101000a900460ff166104ef576040517f08c379a00000000000000000000000000000000000000000000000000000000081526004016104e690611740565b60405180910390fd5b600460003373ffffffffffffffffffffffffffffffffffffffff1673ffffffffffffffffffffffffffffffffffffffff16815260200190815260200160002060009054906101000a900460ff1661057b576040517f08c379a0000000000000000000000000000000000000000000000000000000008152600401610572906117ac565b60405180910390fd5b6002600085815260200190815260200160002060009054906101000a900460ff166105db576040517f08c379a00000000000000000000000000000000000000000000000000000000081526004016105d290611818565b60405180910390fd5b6000600160008681526020019081526020016000209050828160020160003373ffffffffffffffffffffffffffffffffffffffff1673ffffffffffffffffffffffffffffffffffffffff168152602001908152602001600020541015610676576040517f08c379a000000000000000000000000000000000000000000000000000000000815260040161066d90611884565b60405180910390fd5b828160020160003373ffffffffffffffffffffffffffffffffffffffff1673ffffffffffffffffffffffffffffffffffffffff16815260200190815260200160002060008282546106c791906118d3565b92505081905550828160020160008673ffffffffffffffffffffffffffffffffffffffff1673ffffffffffffffffffffffffffffffffffffffff168152602001908152602001600020600082825461071f9190611907565b92505081905550847f48e657b4ffe367675606fbae5071006ebc74fc7bcea28dc4011020a22d15eda433868660405161075a9392919061193b565b60405180910390a25050505050565b610771611014565b81600460008273ffffffffffffffffffffffffffffffffffffffff1673ffffffffffffffffffffffffffffffffffffffff16815260200190815260200160002060009054906101000a900460ff166107fe576040517f08c379a00000000000000000000000000000000000000000000000000000000081526004016107f590611740565b60405180910390fd5b6002600085815260200190815260200160002060009054906101000a900460ff1661085e576040517f08c379a000000000000000000000000000000000000000000000000000000000815260040161085590611818565b60405180910390fd5b6000600160008681526020019081526020016000209050828160020160008673ffffffffffffffffffffffffffffffffffffffff1673ffffffffffffffffffffffffffffffffffffffff16815260200190815260200160002060008282546108c69190611907565b92505081905550828160010160008282546108e19190611907565b925050819055508373ffffffffffffffffffffffffffffffffffffffff16857fe9e92d0569112d63a13d3acca4859ad9d4d0d72d5b701be230d57348234a5b1e8560405161092f9190611310565b60405180910390a35050505050565b60026020528060005260406000206000915054906101000a900460ff1681565b610966611014565b610970600061109b565b565b60046020528060005260406000206000915054906101000a900460ff1681565b61099a611014565b6000600460008373ffffffffffffffffffffffffffffffffffffffff1673ffffffffffffffffffffffffffffffffffffffff16815260200190815260200160002060006101000a81548160ff02191690831515021790555050565b60008060009054906101000a900473ffffffffffffffffffffffffffffffffffffffff16905090565b60068054610a2b906116c3565b80601f0160208091040260200160405190810160405280929190818152602001828054610a57906116c3565b8015610aa45780601f10610a7957610100808354040283529160200191610aa4565b820191906000526020600020905b815481529060010190602001808311610a8757829003601f168201915b505050505081565b60006002600083815260200190815260200160002060009054906101000a900460ff16610adc5760009050610af6565b600160008381526020019081526020016000206001015490505b919050565b610b03611014565b6001600460008373ffffffffffffffffffffffffffffffffffffffff1673ffffffffffffffffffffffffffffffffffffffff16815260200190815260200160002060006101000a81548160ff02191690831515021790555050565b610b66611014565b600073ffffffffffffffffffffffffffffffffffffffff168173ffffffffffffffffffffffffffffffffffffffff1603610bd85760006040517f1e4fbdf7000000000000000000000000000000000000000000000000000000008152600401610bcf9190611480565b60405180910390fd5b610be18161109b565b50565b60606003805480602002602001604051908101604052809291908181526020018280548015610c3257602002820191906000526020600020905b815481526020019060010190808311610c1e575b5050505050905090565b610c44611014565b6002600085815260200190815260200160002060009054906101000a900460ff16610ca4576040517f08c379a0000000000000000000000000000000000000000000000000000000008152600401610c9b90611818565b60405180910390fd5b6000600160008681526020019081526020016000209050818160020160008673ffffffffffffffffffffffffffffffffffffffff1673ffffffffffffffffffffffffffffffffffffffff168152602001908152602001600020541015610d3f576040517f08c379a0000000000000000000000000000000000000000000000000000000008152600401610d3690611884565b60405180910390fd5b818160020160008673ffffffffffffffffffffffffffffffffffffffff1673ffffffffffffffffffffffffffffffffffffffff1681526020019081526020016000206000828254610d9091906118d3565b92505081905550818160020160008573ffffffffffffffffffffffffffffffffffffffff1673ffffffffffffffffffffffffffffffffffffffff1681526020019081526020016000206000828254610de89190611907565b92505081905550600460008473ffffffffffffffffffffffffffffffffffffffff1673ffffffffffffffffffffffffffffffffffffffff16815260200190815260200160002060009054906101000a900460ff16610e7b576040517f08c379a0000000000000000000000000000000000000000000000000000000008152600401610e72906119be565b60405180910390fd5b847f48e657b4ffe367675606fbae5071006ebc74fc7bcea28dc4011020a22d15eda4858585604051610eaf9392919061193b565b60405180910390a25050505050565b610ec6611014565b60008282604051602001610edb929190611a1d565b6040516020818303038152906040528051906020012090506002600082815260200190815260200160002060009054906101000a900460ff1615610f54576040517f08c379a0000000000000000000000000000000000000000000000000000000008152600401610f4b90611a82565b60405180910390fd5b60006001600083815260200190815260200160002090508383826000019182610f7e929190611c88565b5060016002600084815260200190815260200160002060006101000a81548160ff0219169083151502179055506003829080600181540180825580915050600190039060005260206000200160009091909190915055817f12d9a738dee36498da40abe70a7d851568e2f2d089ab79cd3b3b0bdf810650ae8585604051611006929190611d85565b60405180910390a250505050565b61101c61115f565b73ffffffffffffffffffffffffffffffffffffffff1661103a6109f5565b73ffffffffffffffffffffffffffffffffffffffff16146110995761105d61115f565b6040517f118cdaa70000000000000000000000000000000000000000000000000000000081526004016110909190611480565b60405180910390fd5b565b60008060009054906101000a900473ffffffffffffffffffffffffffffffffffffffff169050816000806101000a81548173ffffffffffffffffffffffffffffffffffffffff021916908373ffffffffffffffffffffffffffffffffffffffff1602179055508173ffffffffffffffffffffffffffffffffffffffff168173ffffffffffffffffffffffffffffffffffffffff167f8be0079c531659141344cd1fd0a4f28419497f9722a3daafe3b4186f6b6457e060405160405180910390a35050565b600033905090565b600081519050919050565b600082825260208201905092915050565b60005b838110156111a1578082015181840152602081019050611186565b60008484015250505050565b6000601f19601f8301169050919050565b60006111c982611167565b6111d38185611172565b93506111e3818560208601611183565b6111ec816111ad565b840191505092915050565b6000602082019050818103600083015261121181846111be565b905092915050565b600080fd5b600080fd5b6000819050919050565b61123681611223565b811461124157600080fd5b50565b6000813590506112538161122d565b92915050565b600073ffffffffffffffffffffffffffffffffffffffff82169050919050565b600061128482611259565b9050919050565b61129481611279565b811461129f57600080fd5b50565b6000813590506112b18161128b565b92915050565b600080604083850312156112ce576112cd611219565b5b60006112dc85828601611244565b92505060206112ed858286016112a2565b9150509250929050565b6000819050919050565b61130a816112f7565b82525050565b60006020820190506113256000830184611301565b92915050565b600060ff82169050919050565b6113418161132b565b82525050565b600060208201905061135c6000830184611338565b92915050565b61136b816112f7565b811461137657600080fd5b50565b60008135905061138881611362565b92915050565b6000806000606084860312156113a7576113a6611219565b5b60006113b586828701611244565b93505060206113c6868287016112a2565b92505060406113d786828701611379565b9150509250925092565b6000602082840312156113f7576113f6611219565b5b600061140584828501611244565b91505092915050565b60008115159050919050565b6114238161140e565b82525050565b600060208201905061143e600083018461141a565b92915050565b60006020828403121561145a57611459611219565b5b6000611468848285016112a2565b91505092915050565b61147a81611279565b82525050565b60006020820190506114956000830184611471565b92915050565b600081519050919050565b600082825260208201905092915050565b6000819050602082019050919050565b6114d081611223565b82525050565b60006114e283836114c7565b60208301905092915050565b6000602082019050919050565b60006115068261149b565b61151081856114a6565b935061151b836114b7565b8060005b8381101561154c57815161153388826114d6565b975061153e836114ee565b92505060018101905061151f565b5085935050505092915050565b6000602082019050818103600083015261157381846114fb565b905092915050565b6000806000806080858703121561159557611594611219565b5b60006115a387828801611244565b94505060206115b4878288016112a2565b93505060406115c5878288016112a2565b92505060606115d687828801611379565b91505092959194509250565b600080fd5b600080fd5b600080fd5b60008083601f840112611607576116066115e2565b5b8235905067ffffffffffffffff811115611624576116236115e7565b5b6020830191508360018202830111156116405761163f6115ec565b5b9250929050565b6000806020838503121561165e5761165d611219565b5b600083013567ffffffffffffffff81111561167c5761167b61121e565b5b611688858286016115f1565b92509250509250929050565b7f4e487b7100000000000000000000000000000000000000000000000000000000600052602260045260246000fd5b600060028204905060018216806116db57607f821691505b6020821081036116ee576116ed611694565b5b50919050565b7f4e6f742077686974656c69737465640000000000000000000000000000000000600082015250565b600061172a600f83611172565b9150611735826116f4565b602082019050919050565b600060208201905081810360008301526117598161171d565b9050919050565b7f53656e646572206e6f742077686974656c697374656400000000000000000000600082015250565b6000611796601683611172565b91506117a182611760565b602082019050919050565b600060208201905081810360008301526117c581611789565b9050919050565b7f506172746974696f6e206e6f7420666f756e6400000000000000000000000000600082015250565b6000611802601383611172565b915061180d826117cc565b602082019050919050565b60006020820190508181036000830152611831816117f5565b9050919050565b7f496e73756666696369656e742062616c616e6365000000000000000000000000600082015250565b600061186e601483611172565b915061187982611838565b602082019050919050565b6000602082019050818103600083015261189d81611861565b9050919050565b7f4e487b7100000000000000000000000000000000000000000000000000000000600052601160045260246000fd5b60006118de826112f7565b91506118e9836112f7565b9250828203905081811115611901576119006118a4565b5b92915050565b6000611912826112f7565b915061191d836112f7565b9250828201905080821115611935576119346118a4565b5b92915050565b60006060820190506119506000830186611471565b61195d6020830185611471565b61196a6040830184611301565b949350505050565b7f5265636569766572206e6f742077686974656c69737465640000000000000000600082015250565b60006119a8601883611172565b91506119b382611972565b602082019050919050565b600060208201905081810360008301526119d78161199b565b9050919050565b600081905092915050565b82818337600083830152505050565b6000611a0483856119de565b9350611a118385846119e9565b82840190509392505050565b6000611a2a8284866119f8565b91508190509392505050565b7f506172746974696f6e20616c7265616479206578697374730000000000000000600082015250565b6000611a6c601883611172565b9150611a7782611a36565b602082019050919050565b60006020820190508181036000830152611a9b81611a5f565b9050919050565b600082905092915050565b7f4e487b7100000000000000000000000000000000000000000000000000000000600052604160045260246000fd5b60008190508160005260206000209050919050565b60006020601f8301049050919050565b600082821b905092915050565b600060088302611b3e7fffffffffffffffffffffffffffffffffffffffffffffffffffffffffffffffff82611b01565b611b488683611b01565b95508019841693508086168417925050509392505050565b6000819050919050565b6000611b85611b80611b7b846112f7565b611b60565b6112f7565b9050919050565b6000819050919050565b611b9f83611b6a565b611bb3611bab82611b8c565b848454611b0e565b825550505050565b600090565b611bc8611bbb565b611bd3818484611b96565b505050565b5b81811015611bf757611bec600082611bc0565b600181019050611bd9565b5050565b601f821115611c3c57611c0d81611adc565b611c1684611af1565b81016020851015611c25578190505b611c39611c3185611af1565b830182611bd8565b50505b505050565b600082821c905092915050565b6000611c5f60001984600802611c41565b1980831691505092915050565b6000611c788383611c4e565b9150826002028217905092915050565b611c928383611aa2565b67ffffffffffffffff811115611cab57611caa611aad565b5b611cb582546116c3565b611cc0828285611bfb565b6000601f831160018114611cef5760008415611cdd578287013590505b611ce78582611c6c565b865550611d4f565b601f198416611cfd86611adc565b60005b82811015611d2557848901358255600182019150602085019450602081019050611d00565b86831015611d425784890135611d3e601f891682611c4e565b8355505b6001600288020188555050505b50505050505050565b6000611d648385611172565b9350611d718385846119e9565b611d7a836111ad565b840190509392505050565b60006020820190508181036000830152611da0818486611d58565b9050939250505056fea264697066735822122078fad074cb96b29fcf71f7bdbdb25002ca900672233a95b2de8e6802c8f5930064736f6c634300081c0033",
  "linkReferences": {},
  "deployedLinkReferences": {}
}